:020000040000FA
:100000000C9435000C945D000C945D000C945D0024
:100010000C945D000C945D000C945D000C945D00EC
:100020000C945D000C945D000C945D000C945D00DC
:100030000C945D000C945D000C945D000C945D00CC
:100040000C949E010C945D000C940E020C94E8013B
:100050000C945D000C945D000C945D000C945D00AC
:100060000C945D000C945D00970311241FBECFEF2C
:10007000D8E0DEBFCDBF11E0A0E0B1E0ECEDF7E0ED
:1000800002C005900D92A033B107D9F721E0A0E39B
:10009000B1E001C01D92AE3DB207E1F710E0C5E34B
:1000A000D0E004C02197FE010E94E603C433D107CB
:1000B000C9F70E9440020C94EC030C9400003FB777
:1000C000F89480913D0190913E01A0913F01B09143
:1000D000400126B5A89B05C02F3F19F00196A11D30
:1000E000B11D3FBFBA2FA92F982F8827BC01CD0182
:1000F000620F711D811D911D42E0660F771F881FE1
:10010000991F4A95D1F70895AF92BF92CF92DF928F
:10011000EF92FF920F931F93CF93DF936C017B01BC
:100120008B01040F151FEB015E01AE18BF08C0174D
:10013000D10759F06991D601ED91FC910190F081C0
:10014000E02DC6010995892B79F7C501DF91CF9183
:100150001F910F91FF90EF90DF90CF90BF90AF90E5
:100160000895FC01538D448D252F30E0842F90E0BD
:10017000821B930B541710F0CF96089501970895A2
:10018000FC01918D828D981761F0A28DAE0FBF2F6B
:10019000B11D5D968C91928D9F5F9F73928F90E0C1
:1001A00008958FEF9FEF0895FC01918D828D981730
:1001B00031F0828DE80FF11D858D90E008958FEF6D
:1001C0009FEF0895FC01918D228D892F90E0805C36
:1001D0009F4F821B91098F739927089581E491E0C5
:1001E0000E94E20021E0892B09F420E0822F08958B
:1001F00080E090E0892B29F00E94EE0081110C94A0
:1002000000000895FC01A48DA80FB92FB11DA35AB9
:10021000BF4F2C91848D90E001968F739927848F26
:10022000A689B7892C93A089B1898C918370806449
:100230008C93938D848D981306C00288F389E02DEA
:1002400080818F7D80830895EF92FF920F931F939B
:10025000CF93DF93EC0181E0888F9B8D8C8D981379
:100260001AC0E889F989808185FF15C09FB7F89485
:10027000EE89FF896083E889F989808183708064D1
:1002800080839FBF81E090E0DF91CF911F910F911C
:10029000FF90EF900895F62E0B8D10E00F5F1F4F2B
:1002A0000F731127E02E8C8D8E110CC00FB607FC3A
:1002B000FACFE889F989808185FFF5CFCE010E94C8
:1002C0000201F1CFEB8DEC0FFD2FF11DE35AFF4F33
:1002D000F0829FB7F8940B8FEA89FB898081806256
:1002E000CFCFCF93DF93EC01888D8823B9F0AA8913
:1002F000BB89E889F9898C9185FD03C0808186FDE1
:100300000DC00FB607FCF7CF8C9185FFF2CF80812F
:1003100085FFEDCFCE010E940201E9CFDF91CF91A1
:100320000895FC0101900020E9F73197AF01481BC7
:10033000590BBC0181E491E00C9484001F920F9250
:100340000FB60F9211242F933F938F939F93AF93E8
:10035000BF938091390190913A01A0913B01B091F6
:100360003C013091380123E0230F2D3758F50196D9
:10037000A11DB11D209338018093390190933A015A
:10038000A0933B01B0933C0180913D0190913E01CF
:10039000A0913F01B09140010196A11DB11D809334
:1003A0003D0190933E01A0933F01B0934001BF9166
:1003B000AF919F918F913F912F910F900FBE0F9012
:1003C0001F90189526E8230F0296A11DB11DD2CFCC
:1003D0001F920F920FB60F9211242F933F934F93BA
:1003E0005F936F937F938F939F93AF93BF93EF939D
:1003F000FF9381E491E00E940201FF91EF91BF9190
:10040000AF919F918F917F916F915F914F913F91AC
:100410002F910F900FBE0F901F9018951F920F9263
:100420000FB60F9211242F938F939F93EF93FF9307
:10043000E0915101F09152018081E0915701F091DA
:10044000580182FD1BC0908180915A018F5F8F738C
:1004500020915B01821741F0E0915A01F0E0EF5BDF
:10046000FE4F958F80935A01FF91EF919F918F914D
:100470002F910F900FBE0F901F9018958081F4CF91
:10048000CF93DF93CDB7DEB7A1970FB6F894DEBF59
:100490000FBECDBF789484B5826084BD84B5816081
:1004A00084BD85B5826085BD85B5816085BD80913F
:1004B0006E00816080936E001092810080918100B7
:1004C00082608093810080918100816080938100AF
:1004D000809180008160809380008091B100846071
:1004E0008093B1008091B00081608093B0008091D2
:1004F0007A00846080937A0080917A008260809391
:100500007A0080917A00816080937A0080917A00ED
:10051000806880937A001092C10052985398549842
:100520005598229A239A249A259AE0915101F091A4
:10053000520182E08083E0914D01F0914E011082E2
:10054000E0914F01F09150018FEC8083109259019E
:10055000E0915501F091560186E08083E0915301CE
:10056000F0915401808180618083E0915301F0918A
:100570005401808188608083E0915301F09154019F
:10058000808180688083E0915301F09154018081E3
:100590008F7D80838AE0C82ED12CE12CF12C00E0E5
:1005A00010E00E945F0060933401709335018093E6
:1005B00036019093370189B161E0E82FE47082FF42
:1005C00060E089B199249394B82FB87083FF912C7F
:1005D00089B151E0982F9071B92E84FF50E089B114
:1005E00041E0F82FF0728F2E85FF40E091E0E1119D
:1005F00090E021E0B11120E0EB2B81E0B11080E030
:10060000AB2DAE2BF1E08110F0E0762F7921A82EF2
:10061000A72275B0392D34233923662E6422622235
:1006200036293A298A2A662463948110612C362956
:10063000330F330F372935B935B195239F229929C7
:100640009A29BB29BB24B394B111B12CB4229B29A4
:10065000990F990F990F932B95B935B1252B242319
:1006600091E0A11190E0292B2295207F232B25B921
:1006700025B184236F23862B91E0E11190E049237B
:10068000842B5723852B8295880F807E822B85B9FA
:100690000E945F00609330017093310180933201BA
:1006A0009093330182E191E00E9491012091300109
:1006B00030913101409132015091330180913401E8
:1006C00090913501A0913601B0913701281B390B6B
:1006D0004A0B5B0B19A25E0181E2A80EB11CCA0194
:1006E000B901A70196010E94C403605DF501629300
:1006F0005F01211531054105510589F7309719F042
:10070000CF010E94910182E291E00E9491018CE26E
:1007100091E00E9491010115110509F442CF0E9458
:10072000EE00882309F43DCF0E9400003ACFE1E4B7
:10073000F1E01382128288EE93E0A0E0B0E08483BF
:100740009583A683B78384E091E09183808385ECD1
:1007500090E09587848784EC90E09787868780EC8B
:1007600090E0918B808B81EC90E0938B828B82EC7C
:1007700090E0958B848B86EC90E0978B868B118E26
:10078000128E138E148E0895A1E21A2EAA1BBB1B83
:10079000FD010DC0AA1FBB1FEE1FFF1FA217B3074D
:1007A000E407F50720F0A21BB30BE40BF50B661F63
:1007B000771F881F991F1A9469F760957095809527
:1007C00090959B01AC01BD01CF010895EE0FFF1F75
:1007D0000590F491E02D0994F894FFCF00000000FB
:1007E00024018400B1007101E200C000D40045780A
:1007F00065637574696F6E2054696D653A00206D8C
:0C0800006963726F736563000D0A0000ED
:107E0000112484B714BE81FFF0D085E080938100F7
:107E100082E08093C00088E18093C10086E0809377
:107E2000C20080E18093C4008EE0C9D0259A86E02C
:107E300020E33CEF91E0309385002093840096BBD3
:107E4000B09BFECF1D9AA8958150A9F7CC24DD24C4
:107E500088248394B5E0AB2EA1E19A2EF3E0BF2EE7
:107E6000A2D0813461F49FD0082FAFD0023811F036
:107E7000013811F484E001C083E08DD089C08234E0
:107E800011F484E103C0853419F485E0A6D080C0E4
:107E9000853579F488D0E82EFF2485D0082F10E0AE
:107EA000102F00270E291F29000F111F8ED06801E7
:107EB0006FC0863521F484E090D080E0DECF843638
:107EC00009F040C070D06FD0082F6DD080E0C81688
:107ED00080E7D80618F4F601B7BEE895C0E0D1E017
:107EE00062D089930C17E1F7F0E0CF16F0E7DF06D8
:107EF00018F0F601B7BEE89568D007B600FCFDCFD4
:107F0000A601A0E0B1E02C9130E011968C91119780
:107F100090E0982F8827822B932B1296FA010C0160
:107F200087BEE89511244E5F5F4FF1E0A038BF0790
:107F300051F7F601A7BEE89507B600FCFDCF97BE46
:107F4000E89526C08437B1F42ED02DD0F82E2BD052
:107F50003CD0F601EF2C8F010F5F1F4F84911BD097
:107F6000EA94F801C1F70894C11CD11CFA94CF0C13
:107F7000D11C0EC0853739F428D08EE10CD085E9AC
:107F80000AD08FE07ACF813511F488E018D01DD067
:107F900080E101D065CF982F8091C00085FFFCCF94
:107FA0009093C60008958091C00087FFFCCF809118
:107FB000C00084FD01C0A8958091C6000895E0E648
:107FC000F0E098E1908380830895EDDF803219F02E
:107FD00088E0F5DFFFCF84E1DECF1F93182FE3DFCA
:107FE0001150E9F7F2DF1F91089580E0E8DFEE27F6
:047FF000FF270994CA
:027FFE00040479
:00000001FF
