:100000000C9483000C94B4000C94B4000C94B400D1
:100010000C94B4000C94B4000C94B4000C94B40090
:100020000C94B4000C94B4000C94B4000C94B40080
:100030000C94B4000C94B4000C94B4000C94B40070
:100040000C94B4000C94B4000C94B4000C94B40060
:100050000C94B4000C94B4000C94B4000C941C02E6
:100060000C94B4000C9490020C9466020C94B400AE
:100070000C94B4000C94B4000C94B4000C94B40030
:100080000C94B4000C94B4000C94B4000C94B40020
:100090000C94B4000C94B4000C94B4000C94B40010
:1000A0000C94B4000C94B4000C94B4000C94B40000
:1000B0000C94B4000C94B4000C94B4000C94B400F0
:1000C0000C94B4000C94B4000C94B4000C94B400E0
:1000D0000C94B4000C94B4000C94B4000C94B400D0
:1000E0000C94B4000C94DB000C94BE010C94390108
:1000F0000C9417010C9408010C943B040C947101AE
:100100000C942B013B0411241FBECFEFD1E2DEBFC4
:10011000CDBF00E00CBF12E0A0E0B2E0E8E2F9E001
:1001200000E00BBF02C007900D92A033B107D9F7D2
:1001300022E0A0E3B2E001C01D92AE3DB207E1F7BC
:1001400010E0C3E8D0E000E006C021970109802F4D
:10015000FE010E948A04C238D10780E00807A9F78F
:100160000E94C6020C9492040C9400003FB7F894CD
:1001700080913D0290913E02A0913F02B0914002D9
:1001800026B5A89B05C02F3F19F00196A11DB11DF2
:100190003FBFBA2FA92F982F8827BC01CD01620F2E
:1001A000711D811D911D42E0660F771F881F991FE9
:1001B0004A95D1F70895AF92BF92CF92DF92EF9216
:1001C000FF920F931F93CF93DF936C017B018B0101
:1001D000040F151FEB015E01AE18BF08C017D10751
:1001E00059F06991D601ED91FC910190F081E02DDB
:1001F000C6011995892B79F7C501DF91CF911F9120
:100200000F91FF90EF90DF90CF90BF90AF90089547
:10021000FC01538D448D252F30E0842F90E0821B0C
:10022000930B541710F0CF96089501970895FC0191
:10023000918D828D981761F0A28DAE0FBF2FB11DE9
:100240005D968C91928D9F5F9F73928F90E0089541
:100250008FEF9FEF0895FC01918D828D981731F0FB
:10026000828DE80FF11D858D90E008958FEF9FEF4F
:100270000895FC01918D228D892F90E0805C9F4F25
:10028000821B91098F739927089581E492E00E945F
:10029000390121E0892B09F420E0822F0895FC0127
:1002A000A48DA80FB92FB11DA35ABF4F2C91848DD7
:1002B00090E001968F739927848FA689B7892C9334
:1002C000A089B1898C91837080648C93938D848D87
:1002D000981306C00288F389E02D80818F7D80838A
:1002E0000895EF92FF920F931F93CF93DF93EC014A
:1002F00081E0888F9B8D8C8D98131AC0E889F989CD
:10030000808185FF15C09FB7F894EE89FF896083CF
:10031000E889F98980818370806480839FBF81E050
:1003200090E0DF91CF911F910F91FF90EF90089592
:10033000F62E0B8D10E00F5F1F4F0F731127E02E6D
:100340008C8D8E110CC00FB607FCFACFE889F989A5
:10035000808185FFF5CFCE010E944F01F1CFEB8D5B
:10036000EC0FFD2FF11DE35AFF4FF0829FB7F89479
:100370000B8FEA89FB8980818062CFCFCF93DF9397
:10038000EC01888D8823B9F0AA89BB89E889F989AD
:100390008C9185FD03C0808186FD0DC00FB607FCE2
:1003A000F7CF8C9185FFF2CF808185FFEDCFCE0115
:1003B0000E944F01E9CFDF91CF91089580E090E056
:1003C000892B29F00E94450181110E94000080E0E4
:1003D00090E0892B49F080E090E0892B29F00E9481
:1003E000000081110E94000080E090E0892B49F01C
:1003F00080E090E0892B29F00E94000081110E948A
:10040000000080E090E0892B49F080E090E0892BAB
:1004100029F00E94000081110C9400000895FC0155
:1004200001900020E9F73197AF01481B590BBC013F
:1004300081E492E00C94DB001F920F920FB60F92B2
:1004400011242F933F938F939F93AF93BF938091EA
:10045000390290913A02A0913B02B0913C02309156
:10046000380223E0230F2D3758F50196A11DB11D49
:10047000209338028093390290933A02A0933B0272
:10048000B0933C0280913D0290913E02A0913F02C8
:10049000B09140020196A11DB11D80933D02909341
:1004A0003E02A0933F02B0934002BF91AF919F9153
:1004B0008F913F912F910F900FBE0F901F90189525
:1004C00026E8230F0296A11DB11DD2CF1F920F92D5
:1004D0000FB60F9211240BB60F922F933F934F93A9
:1004E0005F936F937F938F939F93AF93BF93EF939C
:1004F000FF9381E492E00E944F01FF91EF91BF9141
:10050000AF919F918F917F916F915F914F913F91AB
:100510002F910F900BBE0F900FBE0F901F9018954C
:100520001F920F920FB60F9211240BB60F922F93BA
:100530008F939F93EF93FF93E0915102F0915202BA
:100540008081E0915702F091580282FD1DC0908198
:1005500080915A028F5F8F7320915B02821741F066
:10056000E0915A02F0E0EF5BFD4F958F80935A02C5
:10057000FF91EF919F918F912F910F900BBE0F9054
:100580000FBE0F901F9018958081F2CFCF93DF930D
:10059000CDB7DEB7A1970FB6F894DEBF0FBECDBFC3
:1005A000789484B5826084BD84B5816084BD85B54E
:1005B000826085BD85B5816085BD80916E0081605A
:1005C00080936E0010928100809181008260809300
:1005D0008100809181008160809381008091800002
:1005E0008160809380008091B10084608093B1002D
:1005F0008091B00081608093B00080919100826012
:10060000809391008091910081608093910080910E
:1006100090008160809390008091A100826080931F
:10062000A1008091A10081608093A1008091A00031
:1006300081608093A00080912101826080932101DC
:10064000809121018160809321018091200181604E
:100650008093200180917A00846080937A00809159
:100660007A00826080937A0080917A008160809322
:100670007A0080917A00806880937A001092C1009D
:100680005298539854985598229A239A249A259AC6
:10069000E0915102F091520282E08083E0914D029C
:1006A000F0914E021082E0914F02F09150028FECD7
:1006B000808310925902E0915502F091560286E033
:1006C0008083E0915302F0915402808180618083A5
:1006D000E0915302F0915402808188608083E09120
:1006E0005302F0915402808180688083E09153022C
:1006F000F091540280818F7D80838AE0C82ED12CB6
:10070000E12CF12C0E94B600609334027093350204
:10071000809336029093370289B161E0E82FE4704C
:1007200082FF60E089B1B1E0182F187083FFB0E05C
:1007300089B151E0082F007184FF50E089B141E098
:10074000982F9072A92E85FF40E091E0E11190E092
:1007500021E0111120E0E12B81E0011180E0A02FC8
:10076000AE2BF1E0A110F0E0762F7B23B82EB7225C
:1007700085B03B2F34233923962E94229222392997
:100780003B29AA2A99249394A110912C3929330F3B
:10079000330F382935B9A5B09523BF239B2B9B294F
:1007A000102B31E009F030E03423932B990F990F8F
:1007B000990F9A2995B935B1252B242391E0A111E0
:1007C00090E0292B2295207F232B25B925B1842366
:1007D0006F23862B91E0E11190E04923842B57236E
:1007E000852B8295880F807E822B85B90E94B6006A
:1007F00060933002709331028093320290933302FF
:1008000082E192E00E940F02209130023091310289
:10081000409132025091330280913402909135021E
:10082000A0913602B0913702281B390B4A0B5B0BA3
:1008300019A28E010F5D1F4FCA01B901A7019601D0
:100840000E946804605DF80162938F0121153105F3
:100850004105510589F7309719F0CF010E940F0229
:1008600082E292E00E940F028CE292E00E940F026C
:100870000E94DE0147CFE1E4F2E01382128288EEAB
:1008800093E0A0E0B0E084839583A683B78384E0FF
:1008900092E09183808385EC90E09587848784EC57
:1008A00090E09787868780EC90E0918B808B81EC3D
:1008B00090E0938B828B82EC90E0958B848B86EC1E
:1008C00090E0978B868B118E128E138E148E089566
:1008D000A1E21A2EAA1BBB1BFD010DC0AA1FBB1F44
:1008E000EE1FFF1FA217B307E407F50720F0A21BB6
:1008F000B30BE40BF50B661F771F881F991F1A9423
:1009000069F760957095809590959B01AC01BD014C
:10091000CF010895EE0FFF1F881F8BBF0790F69140
:08092000E02D1994F894FFCFBB
:10092800000000007101DB000801BE013901170158
:100938002B01457865637574696F6E2054696D6520
:100948003A00206D6963726F736563000D0A0000D9
:00000001FF
