:100000000C9435010C9466010C9466010C94660105
:100010000C9466010C9466010C9466010C946601C4
:100020000C9466010C9466010C9466010C946601B4
:100030000C9466010C9466010C9466010C946601A4
:100040000C9466010C9466010C9466010C94660194
:100050000C9466010C9466010C9466010C940404E3
:100060000C9466010C9478040C944E040C94660174
:100070000C9466010C9466010C9466010C94660164
:100080000C9466010C9466010C9466010C94660154
:100090000C9466010C9466010C9466010C94660144
:1000A0000C9466010C9466010C9466010C94660134
:1000B0000C9466010C9466010C9466010C94660124
:1000C0000C9466010C9466010C9466010C94660114
:1000D0000C9466010C9466010C9466010C94660104
:1000E0000C9466010C94A7020C94C6010C94AF0109
:1000F0000C94C1010C94AB010C94B5020C94ED026C
:100100000C94B3010C94A1010C94C7010C949302BC
:100110000C94B9010C943A030C9484020C94CB0116
:100120000C9494010C9490010C949B010C945B062C
:100130000C94A5010C9498010C94BD010C948601BB
:100140000C9457020C948C0100002100240027001D
:100150002A002D00300033000101000004010701D6
:100160000A0100002200250028002B002E0031008B
:10017000340002010000050108010B01000020000D
:100180002300260029002C002F003200000100006F
:10019000030106010901050505050705080808080A
:1001A000020202020A0A080804040404010101010F
:1001B000010101010303030303030303040707070A
:1001C0000C0C0C0C0C0C0C0C0202020206060606AF
:1001D000060606060B0B0B0B0B0B0B0B010210207C
:1001E000200808102040102040800201020108046D
:1001F0000201010204081020408080402010080401
:100200000201800402018040201008040201080459
:10021000020101020408102040800102040810209D
:10022000408000000A0B02090C0D0E0807030401B0
:1002300000000000000000000000000000000000BE
:10024000000000000000000000000000000012118B
:10025000100000000000000000000000000000008E
:1002600000000000000000005B0611241FBECFEF5D
:10027000D1E2DEBFCDBF00E00CBF12E0A0E0B2E0F3
:10028000E8E6FDE000E00BBF02C007900D92AA3245
:10029000B107D9F722E0AAE2B2E001C01D92A83D61
:1002A000B207E1F711E0C5E3D1E000E006C0219715
:1002B0000109802FFE010E94AA06C433D10780E005
:1002C0000807A9F70E94AE040C94B2060C94000033
:1002D0008150823108F05AC0E82FF0E08827EC58AE
:1002E000FE4F8F4F0C94AA069401980186018C0151
:1002F0009001C6019B01A101A501AB01AF01B301B2
:10030000B901BD01C601C101C701CB0180918000C7
:100310008F77809380000895809180008F7DF9CF42
:1003200080918000877FF5CF84B58F7784BD089555
:1003300084B58F7DFBCF8091B0008F778093B00024
:1003400008958091B0008F7DF9CF809190008F77D4
:10035000809390000895809190008F7DF9CF8091D7
:100360009000877FF5CF8091A0008F778093A000C9
:1003700008958091A0008F7DF9CF8091A000877FA4
:10038000F5CF809120018F7780932001089580918F
:1003900020018F7DF9CF80912001877FF5CFCF930A
:1003A000DF93282F30E0F901EE5DFD4F8491F901D4
:1003B000E452FE4FD491F901EA56FE4FC491CC238A
:1003C000A1F081110E946801EC2FF0E0EE0FFF1FF9
:1003D000E458FE4FA591B491EC91ED2381E090E0BB
:1003E00009F480E0DF91CF91089580E090E0FACFAA
:1003F0001F93CF93DF93282F30E0F901EE5DFD4F7F
:100400008491F901E452FE4FD491F901EA56FE4F6E
:10041000C491CC23A9F0162F81110E946801EC2F02
:10042000F0E0EE0FFF1FEE59FE4FA591B4918FB78C
:10043000F894EC91111108C0D095DE23DC938FBFA6
:10044000DF91CF911F910895DE2BF8CFCF93DF93EB
:1004500090E0FC01E452FE4F24918A569E4FFC012D
:1004600084918823D1F090E0880F991FFC01E85B0C
:10047000FE4FA591B491FC01EE59FE4FC591D49168
:1004800061110EC09FB7F8948C91E22FE0958E23F6
:100490008C932881E223E8839FBFDF91CF91089559
:1004A0008FB7F894EC91E22BEC938FBFF6CFAF921D
:1004B000BF92CF92DF92EF92FF920F931F93CF9351
:1004C000DF936C017B018B01040F151FEB015E01B3
:1004D000AE18BF08C017D10759F06991D601ED9148
:1004E000FC910190F081E02DC6011995892B79F7D7
:1004F000C501DF91CF911F910F91FF90EF90DF9099
:10050000CF90BF90AF900895FC01538D448D252F5F
:1005100030E0842F90E0821B930B541710F0CF969D
:10052000089501970895FC01918D828D981761F0CF
:10053000A28DAE0FBF2FB11D5D968C91928D9F5FE6
:100540009F73928F90E008958FEF9FEF0895FC01C5
:10055000918D828D981731F0828DE80FF11D858D78
:1005600090E008958FEF9FEF0895FC01918D228D0B
:10057000892F90E0805C9F4F821B91098F73992790
:1005800008958BE392E00E94B50221E0892B09F4E3
:1005900020E0822F0895FC01A48DA80FB92FB11D72
:1005A000A35ABF4F2C91848D90E001968F739927A9
:1005B000848FA689B7892C93A089B1898C91837087
:1005C00080648C93938D848D981306C00288F38980
:1005D000E02D80818F7D80830895EF92FF920F93AD
:1005E0001F93CF93DF93EC0181E0888F9B8D8C8DDF
:1005F00098131AC0E889F989808185FF15C09FB7D3
:10060000F894EE89FF896083E889F9898081837095
:10061000806480839FBF81E090E0DF91CF911F9144
:100620000F91FF90EF900895F62E0B8D10E00F5F65
:100630001F4F0F731127E02E8C8D8E110CC00FB63B
:1006400007FCFACFE889F989808185FFF5CFCE01D3
:100650000E94CB02F1CFEB8DEC0FFD2FF11DE35A81
:10066000FF4FF0829FB7F8940B8FEA89FB89808156
:100670008062CFCFCF93DF93EC01888D8823B9F0D0
:10068000AA89BB89E889F9898C9185FD03C080819D
:1006900086FD0DC00FB607FCF7CF8C9185FFF2CF1A
:1006A000808185FFEDCFCE010E94CB02E9CFDF91A3
:1006B000CF91089580E090E0892B29F00E94C1023B
:1006C00081110E94000080E090E0892B49F080E0D9
:1006D00090E0892B29F00E94000081110E94000007
:1006E00080E090E0892B49F080E090E0892B29F0B0
:1006F0000E94000081110E94000080E090E0892BA0
:1007000049F080E090E0892B29F00E9400008111DF
:100710000C9400000895FC0101900020E9F7319746
:10072000AF01481B590BBC018BE392E00C945702BC
:100730008F929F92AF92BF920F931F93CF93DF93AD
:10074000CDB7DEB7A1970FB6F894DEBF0FBECDBF11
:1007500019A2423008F44AE08E010F5D1F4F842E2B
:10076000912CB12CA12CA50194010E948806E62FA2
:10077000B901CA01EA30F4F4E05DD801EE938D01CD
:10078000232B242B252B79F790E080E0109719F08C
:10079000CD010E948B03A1960FB6F894DEBF0FBE69
:1007A000CDBFDF91CF911F910F91BF90AF909F90E0
:1007B0008F900895E95CE1CFCF92DF92EF92FF92A4
:1007C000CF93DF936B017C016DE28BE392E00E949B
:1007D000ED02EC0166277727CB016C197D098E09A4
:1007E0009F094AE00E9498038C0F9D1FDF91CF91D3
:1007F000FF90EF90DF90CF900895BC01990F880B88
:10080000990B4AE00C9498031F920F920FB60F9227
:1008100011242F933F938F939F93AF93BF93809116
:10082000370290913802A0913902B0913A0230918A
:10083000360223E0230F2D3758F50196A11DB11D77
:10084000209336028093370290933802A0933902A6
:10085000B0933A028091320290913302A091340217
:10086000B09135020196A11DB11D80933202909383
:100870003302A0933402B0933502BF91AF919F91A0
:100880008F913F912F910F900FBE0F901F90189551
:1008900026E8230F0296A11DB11DD2CF1F920F9201
:1008A0000FB60F9211240BB60F922F933F934F93D5
:1008B0005F936F937F938F939F93AF93BF93EF93C8
:1008C000FF938BE392E00E94CB02FF91EF91BF91E7
:1008D000AF919F918F917F916F915F914F913F91D8
:1008E0002F910F900BBE0F900FBE0F901F90189579
:1008F0001F920F920FB60F9211240BB60F922F93E7
:100900008F939F93EF93FF93E0914B02F0914C02F2
:100910008081E0915102F091520282FD1DC09081D0
:10092000809154028F5F8F7320915502821741F09E
:10093000E0915402F0E0E55CFD4F958F8093540206
:10094000FF91EF919F918F912F910F900BBE0F9080
:100950000FBE0F901F9018958081F2CF789484B5C8
:10096000826084BD84B5816084BD85B5826085BDAB
:1009700085B5816085BD80916E00816080936E0039
:10098000109281008091810082608093810080912B
:1009900081008160809381008091800081608093DC
:1009A00080008091B10084608093B1008091B0009C
:1009B00081608093B000809191008260809391006B
:1009C000809191008160809391008091900081607E
:1009D000809390008091A10082608093A10080911B
:1009E000A10081608093A1008091A000816080932C
:1009F000A0008091210182608093210180912101DA
:100A00008160809321018091200181608093200189
:100A100080917A00846080937A0080917A0082606D
:100A200080937A0080917A00816080937A0080912F
:100A30007A00806880937A001092C10060E082E0C2
:100A40000E94260260E083E00E94260260E084E0CB
:100A50000E94260260E085E00E94260261E08AE0B2
:100A60000E94260261E08BE00E94260261E08CE099
:100A70000E94260261E08DE00E942602E0914B0276
:100A8000F0914C0282E08083E0914702F0914802AD
:100A90001082E0914902F0914A028FEC808310921B
:100AA0005302E0914F02F091500286E08083E09182
:100AB0004D02F0914E02808180618083E0914D0271
:100AC000F0914E02808188608083E0914D02F09128
:100AD0004E02808180688083E0914D02F0914E0249
:100AE00080818F7D80832FB7F89480913702909119
:100AF0003802A0913902B0913A022FBF80932E02A2
:100B000090932F02A0933002B093310282E00E94B2
:100B1000CF015C01D1E0892B09F4D0E083E00E9491
:100B2000CF016C0111E0892B09F410E084E00E94F0
:100B3000CF017C0101E0892B09F400E085E00E94EF
:100B4000CF0131E0009709F430E021E0A114B104B5
:100B500009F020E0AC28BD28A7014A295B29A1E0C3
:100B6000009709F0A0E07D2F7123B1E0E114F104BA
:100B700009F0B0E0B723C1E0C114D10409F0C0E02E
:100B80006D2F6323C623612F63236223C62BCB2BD8
:100B900061E0FC01E42BF52BEF2B09F060E0C62BA4
:100BA00020231A23122B1B2B21E0F601EE29FF290B
:100BB000EF2B09F020E02323122BC82AD92A21E0A9
:100BC000CD2809F020E0D02EDA22D22A21E0452BD0
:100BD00009F020E0D22AE82AF92A91E0EF2809F06A
:100BE00090E0DA239D2BD1E0AB2809F0D0E0D323AD
:100BF000D92B0723D02B6C2F8AE00E94F801612F9C
:100C00008BE00E94F8016D2D8CE00E94F8016D2FA1
:100C10008DE00E94F8018D2F90E00E94FD038D2D44
:100C200090E00E94FD03812F90E00E94FD036C2F55
:100C300070E090E080E04AE00E94980382E192E058
:100C40000E948B032FB7F89480913702909138025D
:100C5000A0913902B0913A022FBF80932A0290935B
:100C60002B02A0932C02B0932D0285E192E00E940A
:100C70008B0360912A0270912B0280912C0290913B
:100C80002D0200912E0210912F02209130023091FE
:100C90003102601B710B820B930B4AE00E94980398
:100CA00085E292E00E948B0382E192E00E948B0336
:100CB0000E945A0318CFEBE3F2E01382128288EE0F
:100CC00093E0A0E0B0E084839583A683B78384E0BB
:100CD00092E09183808385EC90E09587848784EC13
:100CE00090E09787868780EC90E0918B808B81ECF9
:100CF00090E0938B828B82EC90E0958B848B86ECDA
:100D000090E0978B868B118E128E138E148E089521
:100D1000A1E21A2EAA1BBB1BFD010DC0AA1FBB1FFF
:100D2000EE1FFF1FA217B307E407F50720F0A21B71
:100D3000B30BE40BF50B661F771F881F991F1A94DE
:100D400069F760957095809590959B01AC01BD0108
:100D5000CF010895EE0FFF1F881F8BBF0790F691FC
:080D6000E02D1994F894FFCF77
:100D680000000000ED02570284023A03B502930224
:100D7800A7020D0A00457865637574696F6E205483
:0A0D8800696D653A00206D730000EC
:00000001FF
